{
  "abi": [
    {
      "type": "function",
      "name": "touchBatch",
      "inputs": [
        {
          "name": "targets",
          "type": "address[]",
          "internalType": "address[]"
        }
      ],
      "outputs": [],
      "stateMutability": "nonpayable"
    }
  ],
  "bytecode": {
    "object": "0x6080806040523460155761014c908161001a8239f35b5f80fdfe60806040526004361015610011575f80fd5b5f3560e01c637645c22414610024575f80fd5b34610110576020366003190112610110576004356001600160401b0381116101105736602382011215610110576004810135906001600160401b038211610110573660248360051b83010111610110575f5b8281101561011457600581901b8201602401356001600160a01b0381168103610110575f80808080945af1503d15610108573d906001600160401b0382116100f457604051601f8301601f19908116603f01168101926001600160401b038411828510176100f45760019360405281525f60203d92013e5b01610076565b634e487b7160e01b5f52604160045260245ffd5b6001906100ee565b5f80fd5b00fea2646970667358221220602109de6ee4df1c7ed57b849a11c39a8ed20fad582fd6cc472acc19c1e5888e64736f6c634300081e0033",
    "linkReferences": {}
  },
  "methodIdentifiers": {
    "touchBatch(address[])": "7645c224"
  },
  "id": 19
}